:020000040800F2
:10000000000C0020110100084F0A000881060008BA
:100010004D0A000837030008CD0D0008000000005D
:10002000000000000000000000000000390B000884
:10003000A903000800000000830A0008B90B0008AB
:100040002B0100082B0100082B0100082B010008E0
:100050002B0100082B0100082B0100082B010008D0
:100060002B0100082B0100082B0100082B010008C0
:100070002B0100082B0100082B01000839030008A0
:100080002B0100082B0100082B0100082B010008A0
:100090002B0100082B0100082B0100082B01000890
:1000A0002B0100082B0100082B0100082B01000880
:1000B0002B0100082B0100082B0100082B01000870
:1000C0002B0100082B0100082B0100082B01000860
:1000D0002B010008910D00082B0100082B010008DE
:1000E0002B0100082B0100082B010008DFF80CD0C1
:1000F00000F0AEF800480047A9140008000C0020EA
:1001000030BF72B6704762B6704780F30888704798
:100110000648804706480047FEE7FEE7FEE7FEE7A1
:10012000FEE7FEE7FEE7FEE7FEE7FEE7590C000804
:10013000ED000008D2B201E000F8012B491EFBD20D
:1001400070470022F6E710B513460A4604461946E2
:10015000FFF7F0FF204610BD30B505462A460B4696
:1001600012F8010B13F8014B08B1A042F8D01CB1F2
:10017000002802D06D1CF1E7284630BD10B50022E2
:1001800000E0521C835C8C5CA34201D1002BF8D1AF
:10019000D8B2E1B2401A10BD70B5064600F0F8FEC4
:1001A000046805460A220021304600F018F82C6049
:1001B00070BD30B50B46014600202022012409E025
:1001C00021FA02F59D4205D303FA02F5491B04FA10
:1001D00002F52844151EA2F10102F1DC30BD2DE923
:1001E000F04791460F4680460446002614F8015B0E
:1001F0002DB100F03FF80068405DC007F6D12B2D0F
:1002000002D02D2D18D0641E4A463946204600F0F3
:1002100035F827B13968A14201D1C7F800807105CE
:100220004FF002040BD54042002803DD00F0B0FE81
:100230000460A007BDE8F08746F48066E4E7002884
:10024000F8DA00F0A5FE04606FF00040F2E700006D
:10025000064C074D06E0E06840F0010394E8070013
:1002600098471034AC42F6D3FFF744FF98190008C2
:10027000B819000800487047941900082DE9F05F8C
:1002800082460078002715468B460AF10104B946DC
:10029000302801D09DB113E014F8010B0127782814
:1002A00003D0582801D045B10AE00DB1102D07D177
:1002B0000027102514F8010B02E0082500E00A25AC
:1002C0000026B0460EE005FB080005FB06F10127FD
:1002D00001EB10461FFA80F8B6F5803F00D3B9460F
:1002E00014F8010B294600F018F80028EBDABBF1EE
:1002F000000F05D00FB1641E00E05446CBF800405B
:10030000B9F1000F06D000F043FE02210160C81EC3
:10031000BDE8F09F48EA0640FAE73A2800D23038B4
:1003200020F02002412A01D3A2F13700884201D3F4
:100330004FF0FF307047FEE770B5104D2868C0F3EE
:100340004040002818D000F029F94FF47A76B0FB2D
:10035000F6F106FB110400F021F9B0FBF6F122469C
:1003600007A000F0E7FD0AA000F0E4FD0DA000F0FA
:10037000E1FD4FF40030686070BD000000000240F5
:100380005B493A2025642E253033645D200000004F
:10039000444D412046554C4C20494E5445525255EF
:1003A000505421000D0A0000704700007CB5002366
:1003B00006460424451800930193A80505D1B6F11B
:1003C000006F02D32248864201D300207CBD00F09A
:1003D0009DF82049019304E00198421C0192401CC1
:1003E00002D0C868C007F7D13046009621E00869FE
:1003F00040F00200086100984861086940F0400040
:100400000861019304E00198421C0192401C08D04D
:10041000C868C007F7D100980068401C05D00124C7
:1004200009E000F019F801207CBD009800F580601B
:1004300000908542DBD8C86840F02000C860086999
:1004400020F00200086100F007F820467CBD0000A3
:1004500000000108002002400348016941F08001CA
:10046000016100690020704700200240F8B50026B5
:1004700015460B4607460424009600F047F822482C
:10048000009604E000994A1C0092491C02D0C16801
:10049000C907F7D10169C90703D1016941F0010119
:1004A0000161A9B2012F02D0022F09D101E0198008
:1004B00004E01980BFF36F8F290C5980009606E085
:1004C00002240AE000994A1C0092491C17D0C16816
:1004D000C907F7D11968A942F2D1C168890603D5C5
:1004E000C16841F02001C1600169C90703D00169F9
:1004F00021F001010161FFF7AFFF2046F8BDFFF7D2
:10050000ABFF0020F8BD0000002002400649042097
:100510000A69120607D5054A4A60054A4A60096910
:10052000090600D5002070470020024023016745DE
:10053000AB89EFCDF0B505460026A0F100600F466F
:100540001446B0F5803F27D24FF480618C4204D32B
:10055000A0050AD0012000EB94212846FFF726FFD2
:10056000FFF7D4FF042817D110E01146F5E700BFCC
:1005700057F8262029460220FFF778FF042803D0E9
:10058000FFF76AFF0220F0BD2D1D761CA642EFD3B7
:10059000FFF762FF0428F6D00020F0BD0148006894
:1005A00070470000340000202DE9FF470025064673
:1005B000144689462846A84600950195029503955C
:1005C00004E02154401C6D1C80B2ADB2715D09B1D4
:1005D0004D45F6D31AA12046FFF7BEFD070010D007
:1005E000014618A0FFF7CAFD80B1394617A0FFF7F2
:1005F000C5FD68B1394617A0FFF7C0FD50B184F8BA
:1006000000816D1CA8B200216B460CE0012002E0C5
:10061000022000E0032084F80001F2E75A54491C4C
:10062000401C89B280B2325C202A02D00AB148450F
:10063000F4D31846FFF7B0FDC4F80401BDE8FF8706
:100640002E0000002E62696E000000002E686578A2
:10065000000000002E7331390000000070B5064D17
:100660000C460A460146054BE868184400F0E4FED3
:10067000E8682044E86070BD0000002000400008E9
:1006800007A000F057FCBFF34F8F0E4801680E4AD9
:1006900001F4E06111430160BFF34F8F00BFFDE73C
:1006A000486172644661756C74206572726F722C59
:1006B00020736F6674207265626F6F742E2E2E0D1C
:1006C0000A0000000CED00E00400FA0570B58CB0E3
:1006D00005461C216846FFF734FD142107A8FFF7E3
:1006E00030FD4FF4804000F061F8042000F05EF827
:1006F000234807900920089003200024CDE909042D
:10070000204E07A9304600F077F81F4807900420D4
:10071000089007A9304600F06FF8CDE900540C208E
:100720000294CDE9034005940694184C694620468E
:1007300000F0FAF8206920F490402061606920F010
:100740002A006061E06840F40050E060E06840F03A
:100750001000E0600E4800680122C0F30220002172
:1007600000F076F90146252000F001FC252000F07C
:10077000F1FB00F0BBFA00F0F3F90CB070BD000023
:100780000200020400080140040004040038014093
:100790000CED00E0044908B58A6902438A61896961
:1007A0000140009108BD000000100240044908B556
:1007B0008A6902438A6189690140009108BD00008D
:1007C00000100240044A114411F8011C425842F042
:1007D0000102425070470000F0160008054B001D52
:1007E000194411F8011C0B586FF30F0313430B50FE
:1007F00070470000F0160008F0B50A68C2F30F2534
:1008000095FAA5F2B2FA82F366E001229A402A42F2
:1008100061D0082B03D240F201129A4006E0A3F106
:1008200008024FF00114944044F080620C69C668DD
:10083000170A97FAA7F7B7FA87F726EA1226BC40F5
:100840002643C66092FAA2F700EB1264B7FA87F764
:100850004FEA870C0F27266807FA0CF7BE4392FA77
:10086000A2F7D1F804E0B7FA87F7BF000EFA07FE47
:1008700046EA0E0626604F68012F01D0092F2AD1C3
:1008800092FAA2F7B7FA87F74FEA870C032707FA1D
:100890000CF7BE4392FAA2F7B7FA87F7D1F808E04F
:1008A000BF000EFA07FE92FAA2FC46EA0E06BCFA58
:1008B0008CFC4FEA8C0E4FF0040C26600CFA0EFCF8
:1008C00092FAA2F2B2FA82F2CF68920026EA0C06FD
:1008D00097403E4326605B1C35FA03F295D1002019
:1008E000F0BD4FF47A71B0FBF1F14FF0E020491EFA
:1008F00041610021816105210161704700B5034616
:1009000000F0EAF8186000F0BDF8586000F0C8F890
:100910009860586800F0D2F8D86000BD01490860BE
:1009200070470000180000202DE9FF410446C06810
:100930000D460126C0F34030F0BBE9686868E26804
:100940000843296941F20C639A4311430843E0606C
:10095000A868216921F440510143216168696169F6
:1009600021F44071014361616846FFF7C7FF2448E5
:10097000844201D1039806E02248844202D02248F2
:10098000844238D10298B8B12A68AAB100EBC001FC
:1009900001EB00119200B1FBF2F36420B3FBF0F322
:1009A000B1FBF2F56FF018077B43002605EB8305DA
:1009B000322303EB051500E01DE0B1FBF2F7B5FBB8
:1009C000F0F5B7FBF0F705F0F00505EB0715B1FB07
:1009D000F2F7B1FBF2F1B1FBF0F16FF01802514305
:1009E00007EB810103EB0111B1FBF0F000F00F0008
:1009F000284480B2A06004B03046BDE8F081000019
:100A000000380140004400400048004000B585B077
:100A100014216846FFF795FB2020FFF7BBFE04205A
:100A2000FFF7B8FE0848C0224CF2C00142610091B5
:100A30000121019102210291002103916946FFF7F2
:100A4000DBFE05B000BD000000080140FEE7FEE748
:100A500030B500F00703C3F10704042C00D90424C7
:100A6000181D072801D2002300E0DB1E012505FA2E
:100A700004F0401E084098409D406D1E15402843DC
:100A800030BD704704494968044A01F0F001090982
:100A9000515CC8407047000000100240F716000883
:100AA00004494968044A01F4E06102EB1121097824
:100AB000C840704700100240071700080449496801
:100AC000044A01F4605102EBD1210978C840704713
:100AD00000100240071700080648406810F00C019B
:100AE000054805D0042903D0082901D100F006B833
:100AF000704700000010024000127A000B48416865
:100B000011F480320A4909D0B2F5803F06D141681C
:100B1000084AC1F34041491CB2FBF1F1406802228E
:100B200000F4701002EB9040484370470010024000
:100B300000093D0000127A0070470000BFF34F8F9C
:100B400005480168054A01F4E06111430160BFF303
:100B50004F8F00BFFDE700000CED00E00400FA0538
:100B600070B5144A104B141D127908330E4D0F49FD
:100B70000F48D1502278191D5050CA14052128461B
:100B8000FFF72CFE20782858217840F002006850AA
:100B900005212846FFF716FE0448001F416941F071
:100BA0004001416170BD0000000002400438014076
:100BB000000C0020F016000800F050B8234810B5D3
:100BC000016821F0070141F002010160016801F0B4
:100BD00007010229FAD11E48016841F48031016001
:100BE0000168C1F340410029FAD0416821F47C1129
:100BF00041F4E8114160016841F0807101600168D1
:100C0000C1F340610029FAD0416821F0F001416050
:100C1000416821F4E06141F480614160416821F460
:100C200060514160416821F0030141F002014160DF
:100C3000416801F00C010829FAD1064C2046FFF763
:100C400050FE2046BDE81040FFF768BE002002407D
:100C50000010024000A24A04704700000B480168DF
:100C6000491C016001686422B1FBF2F302FB13111D
:100C700011B9074A012111700168002904D14168A6
:100C8000491C4160002101607047000034000020D1
:100C900000000020114910B588421DD11149104CA7
:100CA000081D09796158027821F00101A1500078EE
:100CB000211D405880B2C0F500610B484160012100
:100CC0000170CA0205212046FFF788FD2046BDE8D5
:100CD00010400521FFF776BD10BD0000003801402F
:100CE00000000240F016000810000020244808B55B
:100CF000416941F001014161406900F0010000904B
:100D0000204800680122C0F302200021FFF7A0FE66
:100D100001460F2000F02BF90F2000F01BF91B4AB1
:100D20001948111D1279825844F210039A430B7826
:100D3000C2500A7882580B7822F4405242F4805212
:100D4000C2500A7882580B7822F02002C2500A78EA
:100D500082580B7842F08002C2500A7882580B7891
:100D600022F04002C2500A7882580B7822F4406286
:100D7000C2500A788258097822F44072425008BD65
:100D8000001002400CED00E000000240F0160008E8
:100D900038B5074C2068C0F3001018B12046FFF7A3
:100DA00079FF00E02068206800906068009038BDFE
:100DB000003801400449486008684006FCD56FF0DF
:100DC000400008607047000000380140FEE7000066
:100DD00010B5064CA168002906D018208847A168E4
:100DE000BDE810401820084710BD0000200000207A
:100DF000014AC2E901017047200000202DE9F047B7
:100E000005009846287891460F4610D0394CE16885
:100E100009B1012F0DD0A7F18501B1F5607F04D88C
:100E20006978AA781144FF291BD0FFF7D1FF01256B
:100E300050E00428F9D12F48401C0178491C01706A
:100E4000207820B100F058F800F060F804E000F0DD
:100E500067F82078401C207060780028E5D00225D3
:100E600038E0012814D04FF480663146E81C00F0C9
:100E70005FFAE91931F8021C49BA81420CD02069A5
:100E8000411C2161052805D90325FFF7A1FF21E0B9
:100E90008026EAE700F044F8607828B10020E0609E
:100EA00060702061E878C0B1E81CE36831465FEA11
:100EB000090205D0ABB1626802B1904700F01CF89E
:100EC000E068A8B1D8F800108A190225C8F80020F7
:100ED000401CE0602846BDE8F08700F00DF80425CE
:100EE000F8E7FFF761FB00F007F800F00FF8E7E71D
:100EF0000725EDE72000002003488168002901D084
:100F00000620084770470000200000200348816841
:100F1000002901D04320084770470000200000202E
:100F200003488168002901D0152008477047000058
:100F3000200000200FB4054B10B503A9044A029805
:100F400000F03AF810BC5DF814FB00005D130008D7
:100F50003C000020002809DB00F01F020121914025
:100F60004009800000F1E020C0F800117047090737
:100F7000090E002804DB00F1E02080F8001470471F
:100F800000F00F0000F1E02080F8141D7047000011
:100F9000004870474000002002E008C8121F08C146
:100FA000002AFAD170477047002001E001C1121FEA
:100FB000002AFBD1704700002DE9FF4F8BB0884617
:100FC0000546002606E025280BD0DDE90D129047E6
:100FD0006D1C761C28780028F5D10FB03046BDE88E
:100FE000F08F0024A146A2460122AE4900E004434E
:100FF00015F8013F203B02FA03F00842F7D12878A8
:101000002A2810D06FF02F022878A0F1300109298A
:1010100015D809EB890102EB410144F0020400EB11
:1010200001096D1CF0E758F8041B5FEA010903D5BC
:1010300044F40054C9F1000944F002046D1C2878FE
:101040002E2817D115F8010F44F004042A280ED0D9
:101050006FF02F022878A0F1300109290AD80AEB95
:101060008A0102EB410100EB010A6D1CF2E758F81E
:1010700004AB6D1C28786C280FD006DC4C2817D0E8
:1010800068280DD06A2814D104E0742810D07A287A
:101090000FD10DE044F400140AE044F4801401E0A0
:1010A00044F440146978814202D104F580146D1C27
:1010B0006D1C2878692865D006DC00288DD063284F
:1010C00027D0642806D15DE06E2808D073282AD086
:1010D000752877D0DDE90D129047761CE0E0C4F367
:1010E0000250022809D003280DD0D8F80010042897
:1010F0000DD00E6008F10408D2E0D8F80010F21705
:10110000C1E90062F6E7D8F800100E80F2E70E7031
:10111000F0E718F8041B8DF8001000208DF801008E
:10112000EB46012003E058F804BB4FF0FF306107A5
:101130004FF0000701D40AE07F1C57450DDA8742C3
:10114000FADB1BF807100029F6D106E07F1C874266
:10115000FCDB1BF807100029F8D1DDE90D23A9EB12
:1011600007008146214600F0B1F83044C61904E07A
:10117000DDE90D121BF8010B90477F1EF8D22146C6
:10118000484688E058F8040BC4F302514FF00A0BAC
:10119000032900D100B2042900D140B2002802DAAC
:1011A00040422D2102E0210505D52B218DF8241088
:1011B000012104E006E0E10710D02021F6E708AFA6
:1011C000089113E058F8040BC4F302514FF00A0BD6
:1011D000032900D180B2042900D1C0B20021EEE77A
:1011E0005946FEF7E6FF303107F8011D0028F7D118
:1011F000ADEB070000F1200B600702D524F480342A
:1012000001E04FF0010ADA4502DDAAEB0B0000E035
:101210000020824600EB0B0108980144A9EB010075
:101220000A90E00306D4DDE90D2321460A9800F078
:101230004DF806444FF0000908E009A911F809002B
:10124000DDE90D12904709F10109761C08998945DD
:10125000F3DBE0030CD5DDE90D2321460A9800F00D
:1012600035F8064404E0DDE90D1230209047761C85
:10127000BAF10001AAF1010AF5DC05E0DDE90D1281
:1012800017F8010B9047761CBBF10001ABF1010B85
:10129000F4DC0A982146DDE90D2300F005F8064448
:1012A0006D1C97E6092801002DE9F0410446002550
:1012B0001E461746880404D405E039462020B0476E
:1012C0006D1C641EF9D52846BDE8F0812DE9F0417A
:1012D000044600251E469046C80301D5302700E08D
:1012E0002027880404D505E041463846B0476D1CE8
:1012F000641EF9D52846BDE8F08100000A484FF485
:101300007A710068B0FBF1F020F07F414FF0E020EF
:10131000491E4161054AF02182F8141D00218161B6
:101320000721016170470000180000200FE000E075
:1013300030B5034600200246074C09E013F8015B74
:10134000521C85EA102534F8155085EA002080B239
:101350008A42F3DB30BD00001017000800B50246DA
:10136000C0B2FFF727FD104600BD000070B504466F
:10137000FEF7C7FE20681D490840B0F1005F2BD082
:10138000FFF70CF94FF47A74B0FBF4F104FB11058C
:10139000FFF704F9B0FBF4F12A4615A0FFF7CAFDE8
:1013A00017A0FFF7C7FD1BA0FFF7C4FDFFF7F6F876
:1013B000B0FBF4F104FB1105FFF7F0F8B0FBF4F11A
:1013C0002A460BA0FFF7B6FD13A0FFF7B3FD11A04F
:1013D000FFF7B0FDFFF7B2FB6068164D286020688C
:1013E000FEF793FE2868BDE8704000470000FE2F1E
:1013F0005B453A2025642E253033645D20000000D3
:101400006A756D7020746F20617070206661696C00
:10141000656421000D0A00007761697420746F20F3
:10142000736F6674776172652072657365742E2EB2
:101430002E0000001C0000202DE9F05F002517465B
:1014400082460C462E46DFF85C804FF480794FF4DC
:10145000007B19E0E078A178000640EA014061785D
:1014600040EA012114F8040B084348F825006D1CDC
:10147000ADB24D4507D100255A460A495046FFF7FF
:1014800059F80AF5806A361DBE42E3D3002D06D016
:101490002A465046BDE8F05F0249FFF74BB8BDE869
:1014A000F09F00000004002008B56648816941F003
:1014B00001018161816901F001010091C16941F07F
:1014C0008051C161C069604900F080500090086897
:1014D0004FF6FF0210405D4A40F4A06010430860E0
:1014E0005B48416821F0E0614160416841F0007172
:1014F0004160FFF763FBFFF789FAFFF7FFFE4FF448
:10150000E130FFF7E3F853495348FFF771FCFFF769
:10151000FDFCFFF7FBFC514E514CDFF848A14FF6A4
:10152000FF7900254FF47A783078002865D0A560DF
:101530004E484B4B4C4A01681B1D4D48FFF75EFC63
:10154000072806D0052851D002284FD0042804D0FF
:101550004CE001206070257048E0FFF71FF8B0FBF9
:10156000F8F208FB1207FFF719F8B0FBF8F13A465A
:1015700040A0FFF7DFFC43A0FFF7DCFC43A0FFF730
:10158000D9FC012049460246401C8A42FBD3FFF7A2
:1015900005F8B0FBF8F208FB1207FEF7FFFFB0FBFF
:1015A000F8F13A4633A0FFF7C5FC2F480146D0F8C2
:1015B000042137A0FFF7BEFC34A0FFF7BBFCFEF709
:1015C000EDFFB0FBF8F208FB1207FEF7E7FFB0FBF8
:1015D000F8F13A4627A0FFF7ADFC39A0FFF7AAFCC7
:1015E0002AA0FFF7A7FC5046FFF7C0FE35704FF466
:1015F00000611F48FEF7A5FD96E7607828B92078BE
:1016000018B12570A068401CA060A06814288BD376
:10161000A5602570FEF7C2FFB0FBF8F208FB1207C9
:10162000FEF7BCFFB0FBF8F13A4612A0FFF782FCD0
:1016300027A0FFF77FFC15A0FFF77CFC5046FFF7C3
:1016400095FE71E7001002400CED00E00000FA0585
:1016500000000140B50D00085D06000810000020E4
:10166000000000200040000844000020140000207A
:10167000000C00205B493A2025642E253033645D40
:1016800020000000776169742E2E2E000D0A0000E4
:1016900055706461746520737563636573736675F3
:1016A0006C2C2066696C655F6E616D653A25732CE4
:1016B0002073697A653A25642042797465000000D8
:1016C0006A756D7020746F206170702E2E2E000070
:1016D00074696D656F75742120776169742E2E2E83
:1016E000206A756D7020746F206170702E2E2E0030
:1016F000081C3044586C800000000000000000010D
:1017000002030406070809000000000102030400A8
:1017100000002110422063308440A550C660E7706D
:10172000088129914AA16BB18CC1ADD1CEE1EFF115
:101730003112100273325222B5529442F772D662BD
:10174000399318837BB35AA3BDD39CC3FFF3DEE365
:101750006224433420040114E664C774A44485540D
:101760006AA54BB528850995EEE5CFF5ACC58DD5B5
:101770005336722611163006D776F6669556B4465D
:101780005BB77AA719973887DFF7FEE79DD7BCC705
:10179000C448E5588668A7784008611802282338AD
:1017A000CCC9EDD98EE9AFF9488969990AA92BB955
:1017B000F55AD44AB77A966A711A500A333A122AFD
:1017C000FDDBDCCBBFFB9EEB799B588B3BBB1AABA5
:1017D000A66C877CE44CC55C222C033C600C411C4D
:1017E000AEED8FFDECCDCDDD2AAD0BBD688D499DF5
:1017F000977EB66ED55EF44E133E322E511E700E9D
:101800009FFFBEEFDDDFFCCF1BBF3AAF599F788F44
:101810008891A981CAB1EBA10CD12DC14EF16FE124
:101820008010A100C230E32004502540467067605C
:10183000B9839893FBA3DAB33DC31CD37FE35EF374
:10184000B1029012F322D2323542145277625672AC
:10185000EAB5CBA5A89589856EF54FE52CD50DC5C4
:10186000E234C324A01481046674476424540544FC
:10187000DBA7FAB79987B8975FE77EF71DC73CD714
:10188000D326F2369106B01657667676154634564C
:101890004CD96DC90EF92FE9C899E9898AB9ABA964
:1018A0004458654806782768C018E1088238A3289C
:1018B0007DCB5CDB3FEB1EFBF98BD89BBBAB9ABBB4
:1018C000754A545A376A167AF10AD01AB32A923AEC
:1018D0002EFD0FED6CDD4DCDAABD8BADE89DC98D04
:1018E000267C076C645C454CA23C832CE01CC10C3C
:1018F0001FEF3EFF5DCF7CDF9BAFBABFD98FF89F54
:10190000176E367E554E745E932EB23ED10EF01E8B
:101910000040404040404040404041414141414002
:1019200040404040404040404040404040404040B7
:101930004005020202020202020202020202020246
:10194000022020202020202020202002020202024B
:1019500002029090909090901010101010101010A3
:1019600010101010101010101010101002020202AF
:1019700002028888888888880808080808080808F3
:1019800008080808080808080808080802020202EF
:101990004000000011190008B819000800000020DC
:1019A00044000000980F0008FC19000844000020C3
:1019B000BC130000A80F0008000000000000000099
:1019C0000000000000000000000000000000000017
:1019D0000024F400000000000000000000000000EF
:1019E00000000000000000000000000000000000F7
:0C19F000000000000000000000000000EB
:04000005080000ED02
:00000001FF
